:07120700C181C180011F003D
:1011AD00300202D20030000B209108C200209108BD
:0811BD00B20122309102D200C0
:0111C5002207
:1011F30012111F758901758CFF758AFBD2AFD2A9B5
:04120300D28C80FE0B
:03000B00020E03DF
:100E0300C0E0C0F0C083C082C0D075D000C000C0B5
:0D0E130001C002C003C004C005C006C00736
:100E2000758CFF758AFBE4FF121054AC06AD07AF5A
:100E30001F051FEF3395E0FEEF25E0FFEE33FE7454
:100E4000002FF58274003EF583ECF0A3EDF0E51F72
:100E5000B47E0F751F003001097B017A0079001202
:070E6000055AC2021211AD98
:100E6700D007D006D005D004D003D002D001D000DF
:0B0E7700D0D0D082D083D0F0D0E03289
:02105400AD07E6
:10105600E4F521F522EDC454F0FDC290D2A7C2A753
:10106600E4FBE52225E0F522E52133F521ED339277
:10107600A6D290D2A5A2A5E4336222C290ED25E0C5
:10108600FD0BBB08DDED3392A6D290D2A5C290ED42
:1010960025E03392A6D290D2A5C290D2A7AE21AFB8
:0110A6002227
:0110A7002226
:10000E00060909E6F80C040202020202041E0000B0
:10001E00000000071F3020404040404020100000EC
:10002E0000E010080810E000000F102020100F0054
:10003E0000001010F8000000000020203F202000DB
:10004E00007008080808F000003028242221300033
:10005E0000300808088870000018202121221C009A
:10006E000000804030F8000000060524243F2424C0
:10007E0000F88888880808000019202020110E003A
:10008E0000E0108888900000000F112020201F0033
:10009E0000180808886818000000003E01000000E3
:1000AE000070880808887000001C222121221C0084
:1000BE0000F008080810E0000001122222110F00C3
:1000CE00000000000000000000010101010101001C
:1000DE000000000000000000000000000000000012
:1000EE0000000000E0000000000101010F0101010D
:1000FE0000000000000000000001010101010100EC
:10010E00404080F0804040000202010F01020200D8
:10011E0000000000C0380400006018070000000056
:10012E000000000000000000000036360000000055
:10013E00000038340282C27C000000000037370015
:10014E000002010202040200000000000000000094
:10015E00F008F0806018000000310C031E211E0014
:10016E000040C07840C0780000043F04043F040003
:10017E00000080402010080000010204081020003A
:10018E00000810204080000000201008040201002A
:10019E0000000000000000000030300000000000F1
:1001AE000000C038E0000000203C23020227382067
:1001BE0008F8888888700000203F202020110E004B
:1001CE00C030080808083800071820202010080042
:1001DE0008F808080810E000203F202020100F002B
:1001EE0008F88888E8081000203F202023201800F7
:1001FE0008F88888E8081000203F2000030000005F
:10020E00C03008080838000007182020221E0200FF
:10021E0008F808000008F808203F210101213F20BE
:10022E00000808F8080800000020203F20200000E9
:10023E0000000808F8080800C08080807F000000D9
:10024E0008F888C028180800203F20012638200012
:10025E0008F8080000000000203F20202020300079
:10026E0008F8F800F8F80800203F013E013F200092
:10027E0008F830C00008F808203F200007183F009B
:10028E00E01008080810E0000F10202020100F00CA
:10029E0008F808080808F000203F210101010000BD
:1002AE00E01008080810E0000F10282830504F000A
:1002BE0008F8888888887000203F2000030C3020C2
:1002CE0000708808080838000038202121221C0000
:1002DE00180808F8080818000000203F2000000049
:1002EE0008F808000008F808001F202020201F0032
:1002FE000878880000C83808000007380E01000092
:10030E0008F800F800F8080000033E013E03000064
:10031E00081868808068180820302C03032C3020C1
:10032E000838C800C83808000000203F2000000030
:10033E0010080808C8380800203826212020180088
:10034E00000080808000000000192424123F20004D
:10035E0010F0008080000000003F112020110E00E0
:10036E000000008080800000000E1120202011006F
:10037E00000080808090F000001F202020103F2081
:10038E000000808080800000001F24242424170099
:10039E00008080E0909020000020203F2020000070
:1003AE000000808080808000006B949494936000A5
:1003BE0010F0008080800000203F210000203F20B0
:1003CE0000809898000000000020203F20200000B0
:1003DE00000000809898000000C08080807F0000A0
:1003EE0010F0000080808000203F2406293020007D
:1003FE00001010F8000000000020203F2020000018
:10040E008080808080808000203F20003F20003F41
:10041E008080008080800000203F210000203F204F
:10042E000000808080800000001F202020201F0000
:10043E00808000808000000080FF912020110E003F
:10044E000000008080008000000E11202091FF80AF
:10045E00808080008080800020203F2120000100CD
:10046E000000808080808000003324242424190022
:10047E00008080E0808000000000001F202010001F
:10048E008080000000808000001F202020103F2070
:10049E00808080008080800000030C300C03000000
:1004AE008080008080008080010E300C07380601AD
:1004BE0000808080008080000020310E2E312000D0
:1004CE008080800000808080008186781806010080
:1004DE0000808080808080000021302C222130001E
:1004EE00007C44447C000000047C0000006C6454DA
:1004FE004C00004454547C00203028247C00005CC6
:10050E0054547400007C545474000004740C0400A1
:10051E00007C54547C00005C54547C007C0C700CA9
:10052E007C0040702C386000446C106C44004444D5
:10053E007C444400447C50247C04007C10107C00DD
:0C054E004464544C4400047C60140C0411
:10115F00C2A2D2A1E4F580D2A0AF80C2A053078073
:09116F00EF7003D38001C350EBC3
:011178002254
:10121700AE0712115FC2A2C2A18E80D2A0C2A022C5
:0812270012117953053FAF06D7
:06122F004307B80212178C
:060003004307C0021217C2
:0F11C600AC0312117953043FAF0512122FAF047F
:0911D50053073F430740021217C3
:0612410043073E021217F4
:0511DE00F583E493FF1E
:1011E300AE0712115FD2A2C2A18E80D2A0C2A022EA
:10117900EF1460111460092402700EC2A3C2A422E4
:0A118900D2A3C2A422C2A3D2A42262
:10114000121179E4FDAF0512122FE4FF1211D5E45C
:0E115000FCE4FF1211E30CBC40F70DBD08E7F4
:01115E00226E
:10111F0012115FE4FF121179121241E4FF121179DB
:10112F000F121241E4FF121179121140E4FF020075
:01113F0003AC
:100EE4001211C6E4FBFA75F020E512A42BF582E595
:100EF400F03AF583E582240EF582E583340012117D
:100F0400DE0BBB00010AEB64104A70DAED04FF1239
:100F140011D0E4FAFB75F020E512A42BF582E5F07C
:100F24003AF583E582241EF582E58334001211DE4E
:0B0F34000BBB00010AEB64104A70DAEE
:010F3F00228F
:100F40001211C6E4FBFA75F010E516A42BF582E544
:100F5000F03AF583E58224AEF582E583340112117F
:100F6000DE0BBB00010AEB64084A70DAED04FF12E5
:100F700011D0E4FAFB75F010E516A42BF582E5F02C
:100F80003AF583E58224B6F582E58334011211DE59
:0B0F90000BBB00010AEB64084A70DA9A
:010F9B002233
:100F9C001211C6E4FBFA75F010E51AA42BF582E5E4
:100FAC00F03AF583E582242EF582E58334001211A4
:100FBC00DE0BBB00010AEB64084A70DAED04FF1289
:100FCC0011D0E4FAFB75F010E51AA42BF582E5F0CC
:100FDC003AF583E5822436F582E58334001211DE7E
:0B0FEC000BBB00010AEB64084A70DA3E
:010FF70022D7
:100FF8001211C6E4FBFA75F010E51EA42BF582E584
:10100800F03AF583E58224DEF582E5833400121197
:10101800DE0BBB00010AEB64084A70DAED04FF122C
:1010280011D0E4FAFB75F010E51EA42BF582E5F06B
:101038003AF583E58224E6F582E58334001211DE71
:0B1048000BBB00010AEB64084A70DAE1
:01105300227A
:0A0B34008F088D098B0A8A0B890CCB
:100B3E00E4F50D750E01AB0AAA0BA90CAF0DEF3340
:100B4E0095E08F82F583120A48FF7003020C80E550
:100B5E0009FD7C00E50DFB3395E0FAEB2DFDEC3A3B
:100B6E00FCD3ED9407EC648094804003750E02EF85
:100B7E00C394414030AB0AAA0BA90CAF0DEF3395CD
:100B8E00E08F82F583120A48FFD3945A5017E50876
:100B9E0025E0FDE50D250975F008A4543FFBEF2473
:100BAE00BFF5168046AB0AAA0BA90CAF0DEF339515
:100BBE00E08F82F583120A48FFC394614034EFD36D
:100BCE00947A502EE50825E0FDE50D250975F0080F
:100BDE00A4543FFBC003AB0AAF0DEF3395E08F82F9
:100BEE00F583120A4824B9F516D003AF0E120F4042
:100BFE00807BAB0AAA0BA90CAF0DEF3395E08F8269
:100C0E00F583120A48FFC394304034EFD394395021
:100C1E002EE50825E0FDE50D250975F008A4543FE5
:100C2E00FBC003AB0AAF0DEF3395E08F82F5831255
:100C3E000A4824D0F51AD003AF0E120F9C802EABAB
:100C4E000AAA0BA90CAF0DEF3395E08F82F5831234
:100C5E000A48B42018E50825E0FDE50D250975F0D4
:100C6E0008A4543FFBE4F51EAF0E120FF8050D025B
:020C7E000B4425
:010C80002251
:0210E400AC0757
:1010E6007E0112115FECD3944040010EAF0612113F
:1010F60079ED131313541FFF12122FEC543FFF12F6
:1011060011D57580FFD2A2D2A1D2A000C2A0D2A0D2
:0811160000E580120A75C2A079
:01111E0022AE
:060E82008F428D438B44FA
:100E88007F01E542D3944040010F1211797B007A2B
:100E9800007945AD43AF421210E4E54313131354F0
:100EA8001FFF12122FE542543FFF1211D5E544608F
:100EB80013E5435407FFF87401088002C333D8FCD4
:100EC80045458012E5435407FFF87401088002C3C2
:0C0ED80033D8FCF45545FFF5450211E34A
:0C0C81008E2C8F2D8C2E8D2F8A308B3105
:100C8D00C3E531952DFFE530952CFE1212358E36CC
:100C9D008F37C3E533952FFFE532952EFE121235B2
:100CAD008E388F39C3E52D9531E52C953050067E64
:100CBD00007F0180047EFF7FFF8E3A8F3BC3E52FBF
:100CCD009533E52E953250067E007F0180047EFF20
:100CDD007FFF8E3C8F3DC3E5379539F53FE5369562
:100CED0038F53EAF2DAD2FAB35120E82E52DB5315A
:100CFD0011E52CB5300CE52F65337004E52E65320A
:100D0D006067E53F25E0F541E53E33F540C3E495E9
:100D1D0039FFE49538FED3E5419FEE6480F8E54058
:100D2D006480984018E53F9539F53FE53E9538F5D7
:100D3D003EE53B252DF52DE53A352CF52CC3E5414A
:100D4D009537E5366480F8E5406480985095E53731
:100D5D00253FF53FE536353EF53EE53D252FF52F93
:090D6D00E53C352EF52E020CF0D8
:010D7600225A
:0210A800AE0791
:1010AA007F01EDC3944040010F121227AF051211C0
:1010BA00D5E4FDFC75F006EBA42DF582E5F03CF5D0
:1010CA0083E58224EEF582E58334041211DE0DBD38
:0910DA0000010CED64064C70DB12
:0110E30022EA
:04119300AC03AE07F4
:101197007F01EDC3944040010F121227AF051211D2
:0611A700D5AF040211E3C4
:08120E00024800000246FFFF48
:06055A008B218A22892397
:10056000E4F548F54974FFF546F547E4F524F5252B
:10057000E52525E0FFE52433AB21AA22A9238F82BC
:10058000F583120AEEFFAEF0D39549EE954840048C
:100590008E488F49C3EF9547EE954650048E468F9F
:1005A000470525E52570020524647E452470C1C3F6
:1005B000E5499547FFE5489546C313F528EF13F540
:1005C00029AE28FF7C007D36120A877DFF120A992A
:1005D0008E288F29E4FF121179E4F524F525AF2543
:1005E00012122FE4FF1211D5E4F526F527E4FF12CD
:1005F00011E30527E52770020526C39440E52694FC
:100600000040EA0525E52570020524C39407E5248A
:10061000940040CA75320075330175340075350198
:100620007B7E7A007D017C00E4FFFE120C81753236
:10063000007533377534007535017B7E7A007D0196
:100640007C007F7E7E00120C817532007533377519
:100650003400753501E4FBFA7D37FC7F7EFE120C19
:1006600081753200753301753400753501E4FBFA8C
:100670007D37FCFFFE120C81752400752502C3E551
:10068000259437E52494005034752600752701C35E
:10069000E527947EE52694005016AF27AD257B0113
:1006A000120E82740A2527F527E43526F52680DF09
:1006B000740A2525F525E43524F52480C1E4F524C4
:1006C000F525E52525E0FFE52433AB21AA22A92362
:1006D0008F82F583120AEEFFAEF07C007D36120A9F
:1006E000877DFF120A99E529241DCDE43528CDC365
:1006F0009FCD9EFCC004C005E5252401FFE4352400
:10070000FEEF25E0FFEE338F82F583120AEEFFAE97
:10071000F07C007D36120A877DFF120A99E52924B4
:100720001DCDE43528CDC39FF533ED9EF532E5258B
:100730002401FBE43524FA753400753501D005D069
:1007400004AF25AE24120C810525E5257002052491
:10075000C3947DE524940050030206C2E54925E0D8
:10076000FDE54833FCE412098E7B937AC67948781C
:100770003E1208831209C78E2A8F2B7B0AE4FD7F65
:10078000071210A87B0B7D067F071210A87B0C7D3B
:100790000C7F071210A87B487D127F07121193AEC1
:1007A0002AAF2B7C007D0A120A99AB077D147F07C4
:1007B0001210A87B017D3E7F1A120E82AE2AAF2B4B
:1007C0007C007D0A120A99AB057D1B7F071210A8D9
:1007D0007B117D217F071210A8E54725E0FDE54646
:1007E00033FCE412098E7B937AC67948783E12086E
:1007F000831209C78E2A8F2B7B0A7D2D7F0712104B
:10080000A87B0D7D337F071210A87B0E7D397F07F3
:100810001210A87B487D3F7F07121193AE2AAF2BA1
:100820007C007D0A120A99AB077D417F071210A850
:100830007B017D3E7F47120E82AE2AAF2B7C007D6E
:100840000A120A99AB057D487F071210A87B117D1B
:100850004E7F071210A87B017D597F071210A8E474
:10086000FB7D5F7F071210A8E4FB7D657F071210F8
:10087000A87B0F7D6B7F071210A87B107D717F070F
:030880000210A8BB
:10088300EC4D6011E8497017ED33EC3304600DE46F
:10089300FCFFFEFD22E933E8330470F8020A331249
:1008A30009FE58046009E4CC24815006285009024B
:1008B3000A3D284003020A3AC0E0EB4A7044B9807B
:1008C30006D0E0FB020A29EF4E701CBD8008EBFF47
:1008D300EAFEE9FD80EBE98DF0A4FEE5F002096C88
:1008E300E9CDF9EAFEEBFFEF89F0A4FCE5F0CE8950
:1008F300F0A42EFFE435F0CD89F0A42DFEE435F00D
:100903008067EF4E7005BD80D780C3EF8BF0A4AC3A
:10091300F0EE8BF0A42CFCE435F0F8EF8AF0A42C75
:10092300E5F038FCE433CB8DF0A42CFCE5F03BF888
:10093300EE8AF0A42CFCE5F038F8E433CF89F0A478
:100943002CFCE5F038CF3400CE89F0A42FFFE5F07E
:100953003EFEE433C98DF0A42EFEE5F039CD8AF0D6
:10096300A42FFFE5F03EFEE43DFD33D0E0FB50074E
:100973000BBB000F020A3DEC2CFCEF33FFEE33FE02
:06098300ED33FD020A1530
:1009890075F020800E75F010800575F0087D007EE9
:10099900007F003392D530D503120B26EC3340107B
:1009A900EF33FFEE33FEED33FDEC33FCD5F0ED22F2
:0E09B900E5F0247EA2D513CC92E7CDCEFF222E
:1009C700EDD2E7CD33EC3392D524814006E4FFFE28
:1009D700FDFC22FCE4CFCECDCC24E0501174FF8087
:1009E700EDC3CC13CCCD13CDCE13CECF13CF047024
:0709F700F030D5DE020B26F3
:1009FE00E9D2E7C933E833F892D5EDD2E7CD33EC3F
:070A0E0033FC5002B2D522B7
:100A1500EC30E7100FBF000C0EBE00080DBD000442
:100A25000BEB6014A2D5EB13FCED92E7FD2274FFEE
:100A3500FCFDFEFF22E480F8A2D574FF13FC7D8047
:030A4500E480EF5B
:03000000020D7777
:0C0D7700787FE4F6D8FD758149020DBEBE
:100A4800BB010CE58229F582E5833AF583E0225063
:100A580006E92582F8E622BBFE06E92582F8E222AD
:0D0A6800E58229F582E5833AF583E49322C7
:100A7500BB010689828A83F0225002F722BBFE0160
:020A8500F3225A
:100A8700EF8DF0A4A8F0CF8CF0A428CE8DF0A42E83
:020A9700FE223D
:100A9900BC000BBE0029EF8DF084FFADF022E4CC41
:100AA900F875F008EF2FFFEE33FEEC33FCEE9DEC0A
:100AB900984005FCEE9DFE0FD5F0E9E4CEFD22ED50
:100AC900F8F5F0EE8420D21CFEADF075F008EF2F9A
:100AD900FFED33FD4007985006D5F0F222C398FD8B
:050AE9000FD5F0EA2228
:100AEE00BB0110E58229F582E5833AF583E0F5F046
:100AFE00A3E0225009E92582F886F008E622BBFE23
:100B0E000AE92582F8E2F5F008E222E5832AF58368
:080B1E00E993F5F0A3E993222D
:0E0B2600C3E49FFFE49EFEE49DFDE49CFC22E0
:0C123500EE30E707C3E49FFFE49EFE22BA
:100D83000211F3E493A3F8E493A34003F68001F282
:100D930008DFF48029E493A3F85407240CC8C33371
:100DA300C4540F4420C8834004F456800146F6DF40
:100DB300E4800B0102040810204080901207E47EB7
:100DC300019360BCA3FF543F30E509541FFEE49335
:100DD300A360010ECF54C025E060A840B8E493A3FC
:100DE300FAE493A3F8E493A3C8C582C8CAC583CA27
:100DF300F0A3C8C582C8CAC583CADFE9DEE780BEDF
:0112160000D7
:00000001FF
